{
  "contractName": "SolnSquareVerifier",
  "abi": [
    {
      "anonymous": false,
      "inputs": [
        {
          "indexed": false,
          "internalType": "uint256",
          "name": "index",
          "type": "uint256"
        },
        {
          "indexed": false,
          "internalType": "address",
          "name": "sender",
          "type": "address"
        }
      ],
      "name": "Added",
      "type": "event"
    },
    {
      "anonymous": false,
      "inputs": [
        {
          "indexed": true,
          "internalType": "address",
          "name": "owner",
          "type": "address"
        },
        {
          "indexed": true,
          "internalType": "address",
          "name": "approved",
          "type": "address"
        },
        {
          "indexed": true,
          "internalType": "uint256",
          "name": "tokenId",
          "type": "uint256"
        }
      ],
      "name": "Approval",
      "type": "event"
    },
    {
      "anonymous": false,
      "inputs": [
        {
          "indexed": true,
          "internalType": "address",
          "name": "owner",
          "type": "address"
        },
        {
          "indexed": true,
          "internalType": "address",
          "name": "operator",
          "type": "address"
        },
        {
          "indexed": false,
          "internalType": "bool",
          "name": "approved",
          "type": "bool"
        }
      ],
      "name": "ApprovalForAll",
      "type": "event"
    },
    {
      "anonymous": false,
      "inputs": [
        {
          "indexed": false,
          "internalType": "address",
          "name": "owner",
          "type": "address"
        }
      ],
      "name": "NewOwner",
      "type": "event"
    },
    {
      "anonymous": false,
      "inputs": [
        {
          "indexed": false,
          "internalType": "address",
          "name": "trigger",
          "type": "address"
        }
      ],
      "name": "Paused",
      "type": "event"
    },
    {
      "anonymous": false,
      "inputs": [
        {
          "indexed": true,
          "internalType": "address",
          "name": "from",
          "type": "address"
        },
        {
          "indexed": true,
          "internalType": "address",
          "name": "to",
          "type": "address"
        },
        {
          "indexed": true,
          "internalType": "uint256",
          "name": "tokenId",
          "type": "uint256"
        }
      ],
      "name": "Transfer",
      "type": "event"
    },
    {
      "anonymous": false,
      "inputs": [
        {
          "indexed": false,
          "internalType": "address",
          "name": "trigger",
          "type": "address"
        }
      ],
      "name": "Unpaused",
      "type": "event"
    },
    {
      "constant": false,
      "inputs": [
        {
          "internalType": "bytes32",
          "name": "_myid",
          "type": "bytes32"
        },
        {
          "internalType": "string",
          "name": "_result",
          "type": "string"
        }
      ],
      "name": "__callback",
      "outputs": [],
      "payable": false,
      "stateMutability": "nonpayable",
      "type": "function"
    },
    {
      "constant": false,
      "inputs": [
        {
          "internalType": "bytes32",
          "name": "_myid",
          "type": "bytes32"
        },
        {
          "internalType": "string",
          "name": "_result",
          "type": "string"
        },
        {
          "internalType": "bytes",
          "name": "_proof",
          "type": "bytes"
        }
      ],
      "name": "__callback",
      "outputs": [],
      "payable": false,
      "stateMutability": "nonpayable",
      "type": "function"
    },
    {
      "constant": false,
      "inputs": [
        {
          "internalType": "address",
          "name": "to",
          "type": "address"
        },
        {
          "internalType": "uint256",
          "name": "tokenId",
          "type": "uint256"
        }
      ],
      "name": "approve",
      "outputs": [],
      "payable": false,
      "stateMutability": "nonpayable",
      "type": "function"
    },
    {
      "constant": true,
      "inputs": [
        {
          "internalType": "address",
          "name": "owner",
          "type": "address"
        }
      ],
      "name": "balanceOf",
      "outputs": [
        {
          "internalType": "uint256",
          "name": "",
          "type": "uint256"
        }
      ],
      "payable": false,
      "stateMutability": "view",
      "type": "function"
    },
    {
      "constant": true,
      "inputs": [
        {
          "internalType": "uint256",
          "name": "tokenId",
          "type": "uint256"
        }
      ],
      "name": "getApproved",
      "outputs": [
        {
          "internalType": "address",
          "name": "",
          "type": "address"
        }
      ],
      "payable": false,
      "stateMutability": "view",
      "type": "function"
    },
    {
      "constant": true,
      "inputs": [],
      "name": "getBaseTokenURI",
      "outputs": [
        {
          "internalType": "string",
          "name": "",
          "type": "string"
        }
      ],
      "payable": false,
      "stateMutability": "view",
      "type": "function"
    },
    {
      "constant": true,
      "inputs": [],
      "name": "getOwner",
      "outputs": [
        {
          "internalType": "address",
          "name": "",
          "type": "address"
        }
      ],
      "payable": false,
      "stateMutability": "view",
      "type": "function"
    },
    {
      "constant": true,
      "inputs": [
        {
          "internalType": "address",
          "name": "owner",
          "type": "address"
        },
        {
          "internalType": "address",
          "name": "operator",
          "type": "address"
        }
      ],
      "name": "isApprovedForAll",
      "outputs": [
        {
          "internalType": "bool",
          "name": "",
          "type": "bool"
        }
      ],
      "payable": false,
      "stateMutability": "view",
      "type": "function"
    },
    {
      "constant": true,
      "inputs": [],
      "name": "isPaused",
      "outputs": [
        {
          "internalType": "bool",
          "name": "",
          "type": "bool"
        }
      ],
      "payable": false,
      "stateMutability": "view",
      "type": "function"
    },
    {
      "constant": false,
      "inputs": [
        {
          "internalType": "address",
          "name": "to",
          "type": "address"
        },
        {
          "internalType": "uint256",
          "name": "tokenId",
          "type": "uint256"
        }
      ],
      "name": "mint",
      "outputs": [
        {
          "internalType": "bool",
          "name": "",
          "type": "bool"
        }
      ],
      "payable": false,
      "stateMutability": "nonpayable",
      "type": "function"
    },
    {
      "constant": true,
      "inputs": [],
      "name": "name",
      "outputs": [
        {
          "internalType": "string",
          "name": "",
          "type": "string"
        }
      ],
      "payable": false,
      "stateMutability": "view",
      "type": "function"
    },
    {
      "constant": true,
      "inputs": [
        {
          "internalType": "uint256",
          "name": "tokenId",
          "type": "uint256"
        }
      ],
      "name": "ownerOf",
      "outputs": [
        {
          "internalType": "address",
          "name": "",
          "type": "address"
        }
      ],
      "payable": false,
      "stateMutability": "view",
      "type": "function"
    },
    {
      "constant": false,
      "inputs": [
        {
          "internalType": "address",
          "name": "from",
          "type": "address"
        },
        {
          "internalType": "address",
          "name": "to",
          "type": "address"
        },
        {
          "internalType": "uint256",
          "name": "tokenId",
          "type": "uint256"
        }
      ],
      "name": "safeTransferFrom",
      "outputs": [],
      "payable": false,
      "stateMutability": "nonpayable",
      "type": "function"
    },
    {
      "constant": false,
      "inputs": [
        {
          "internalType": "address",
          "name": "from",
          "type": "address"
        },
        {
          "internalType": "address",
          "name": "to",
          "type": "address"
        },
        {
          "internalType": "uint256",
          "name": "tokenId",
          "type": "uint256"
        },
        {
          "internalType": "bytes",
          "name": "_data",
          "type": "bytes"
        }
      ],
      "name": "safeTransferFrom",
      "outputs": [],
      "payable": false,
      "stateMutability": "nonpayable",
      "type": "function"
    },
    {
      "constant": false,
      "inputs": [
        {
          "internalType": "address",
          "name": "to",
          "type": "address"
        },
        {
          "internalType": "bool",
          "name": "approved",
          "type": "bool"
        }
      ],
      "name": "setApprovalForAll",
      "outputs": [],
      "payable": false,
      "stateMutability": "nonpayable",
      "type": "function"
    },
    {
      "constant": false,
      "inputs": [
        {
          "internalType": "bool",
          "name": "paused",
          "type": "bool"
        }
      ],
      "name": "setPaused",
      "outputs": [],
      "payable": false,
      "stateMutability": "nonpayable",
      "type": "function"
    },
    {
      "constant": true,
      "inputs": [
        {
          "internalType": "uint256",
          "name": "",
          "type": "uint256"
        }
      ],
      "name": "solutions",
      "outputs": [
        {
          "internalType": "uint256",
          "name": "index",
          "type": "uint256"
        },
        {
          "internalType": "address",
          "name": "sender",
          "type": "address"
        }
      ],
      "payable": false,
      "stateMutability": "view",
      "type": "function"
    },
    {
      "constant": true,
      "inputs": [
        {
          "internalType": "bytes32",
          "name": "",
          "type": "bytes32"
        }
      ],
      "name": "submitted",
      "outputs": [
        {
          "internalType": "uint256",
          "name": "index",
          "type": "uint256"
        },
        {
          "internalType": "address",
          "name": "sender",
          "type": "address"
        }
      ],
      "payable": false,
      "stateMutability": "view",
      "type": "function"
    },
    {
      "constant": true,
      "inputs": [
        {
          "internalType": "bytes4",
          "name": "interfaceId",
          "type": "bytes4"
        }
      ],
      "name": "supportsInterface",
      "outputs": [
        {
          "internalType": "bool",
          "name": "",
          "type": "bool"
        }
      ],
      "payable": false,
      "stateMutability": "view",
      "type": "function"
    },
    {
      "constant": true,
      "inputs": [],
      "name": "symbol",
      "outputs": [
        {
          "internalType": "string",
          "name": "",
          "type": "string"
        }
      ],
      "payable": false,
      "stateMutability": "view",
      "type": "function"
    },
    {
      "constant": true,
      "inputs": [
        {
          "internalType": "uint256",
          "name": "index",
          "type": "uint256"
        }
      ],
      "name": "tokenByIndex",
      "outputs": [
        {
          "internalType": "uint256",
          "name": "",
          "type": "uint256"
        }
      ],
      "payable": false,
      "stateMutability": "view",
      "type": "function"
    },
    {
      "constant": true,
      "inputs": [
        {
          "internalType": "address",
          "name": "owner",
          "type": "address"
        },
        {
          "internalType": "uint256",
          "name": "index",
          "type": "uint256"
        }
      ],
      "name": "tokenOfOwnerByIndex",
      "outputs": [
        {
          "internalType": "uint256",
          "name": "",
          "type": "uint256"
        }
      ],
      "payable": false,
      "stateMutability": "view",
      "type": "function"
    },
    {
      "constant": true,
      "inputs": [
        {
          "internalType": "uint256",
          "name": "tokenId",
          "type": "uint256"
        }
      ],
      "name": "tokenURI",
      "outputs": [
        {
          "internalType": "string",
          "name": "",
          "type": "string"
        }
      ],
      "payable": false,
      "stateMutability": "view",
      "type": "function"
    },
    {
      "constant": true,
      "inputs": [],
      "name": "totalSupply",
      "outputs": [
        {
          "internalType": "uint256",
          "name": "",
          "type": "uint256"
        }
      ],
      "payable": false,
      "stateMutability": "view",
      "type": "function"
    },
    {
      "constant": false,
      "inputs": [
        {
          "internalType": "address",
          "name": "from",
          "type": "address"
        },
        {
          "internalType": "address",
          "name": "to",
          "type": "address"
        },
        {
          "internalType": "uint256",
          "name": "tokenId",
          "type": "uint256"
        }
      ],
      "name": "transferFrom",
      "outputs": [],
      "payable": false,
      "stateMutability": "nonpayable",
      "type": "function"
    },
    {
      "constant": false,
      "inputs": [
        {
          "internalType": "address",
          "name": "newOwner",
          "type": "address"
        }
      ],
      "name": "transferOwnership",
      "outputs": [],
      "payable": false,
      "stateMutability": "nonpayable",
      "type": "function"
    },
    {
      "constant": true,
      "inputs": [
        {
          "internalType": "uint256[2]",
          "name": "a",
          "type": "uint256[2]"
        },
        {
          "internalType": "uint256[2][2]",
          "name": "b",
          "type": "uint256[2][2]"
        },
        {
          "internalType": "uint256[2]",
          "name": "c",
          "type": "uint256[2]"
        },
        {
          "internalType": "uint256[2]",
          "name": "input",
          "type": "uint256[2]"
        }
      ],
      "name": "verifyTx",
      "outputs": [
        {
          "internalType": "bool",
          "name": "r",
          "type": "bool"
        }
      ],
      "payable": false,
      "stateMutability": "view",
      "type": "function"
    },
    {
      "constant": false,
      "inputs": [
        {
          "internalType": "uint256[2]",
          "name": "a",
          "type": "uint256[2]"
        },
        {
          "internalType": "uint256[2][2]",
          "name": "b",
          "type": "uint256[2][2]"
        },
        {
          "internalType": "uint256[2]",
          "name": "c",
          "type": "uint256[2]"
        },
        {
          "internalType": "uint256[2]",
          "name": "input",
          "type": "uint256[2]"
        }
      ],
      "name": "add",
      "outputs": [],
      "payable": false,
      "stateMutability": "nonpayable",
      "type": "function"
    },
    {
      "constant": false,
      "inputs": [
        {
          "internalType": "uint256[2]",
          "name": "a",
          "type": "uint256[2]"
        },
        {
          "internalType": "uint256[2][2]",
          "name": "b",
          "type": "uint256[2][2]"
        },
        {
          "internalType": "uint256[2]",
          "name": "c",
          "type": "uint256[2]"
        },
        {
          "internalType": "uint256[2]",
          "name": "input",
          "type": "uint256[2]"
        },
        {
          "internalType": "uint256",
          "name": "tokenId",
          "type": "uint256"
        }
      ],
      "name": "verifyAndMint",
      "outputs": [],
      "payable": false,
      "stateMutability": "nonpayable",
      "type": "function"
    }
  ],
  "bytecode": "0x608060405260008060146101000a81548160ff02191690831515021790555060006013556040518060400160405280600b81526020017f437573746f6d546f6b656e0000000000000000000000000000000000000000008152506040518060400160405280600381526020017f43535400000000000000000000000000000000000000000000000000000000008152506040518060600160405280603f815260200162004c14603f9139336000806101000a81548173ffffffffffffffffffffffffffffffffffffffff021916908373ffffffffffffffffffffffffffffffffffffffff1602179055507f3edd90e7770f06fafde38004653b33870066c33bfc923ff6102acd601f85dfbc6000809054906101000a900473ffffffffffffffffffffffffffffffffffffffff16604051808273ffffffffffffffffffffffffffffffffffffffff1673ffffffffffffffffffffffffffffffffffffffff16815260200191505060405180910390a160008060146101000a81548160ff0219169083151502179055507f5db9ee0a495bf2e6ff9c91a7834c1ba4fdd244a5e8aa4e537bd38aeae4b073aa33604051808273ffffffffffffffffffffffffffffffffffffffff1673ffffffffffffffffffffffffffffffffffffffff16815260200191505060405180910390a1620002026301ffc9a760e01b6200029e60201b60201c565b6200021a6380ac58cd60e01b6200029e60201b60201c565b6200023263780e9d6360e01b6200029e60201b60201c565b82600f90805190602001906200024a9291906200033e565b508160109080519060200190620002639291906200033e565b5080601190805190602001906200027c9291906200033e565b5062000295635b5e139f60e01b6200029e60201b60201c565b505050620003ed565b63ffffffff60e01b817bffffffffffffffffffffffffffffffffffffffffffffffffffffffff19161415620002d257600080fd5b6001806000837bffffffffffffffffffffffffffffffffffffffffffffffffffffffff19167bffffffffffffffffffffffffffffffffffffffffffffffffffffffff1916815260200190815260200160002060006101000a81548160ff02191690831515021790555050565b828054600181600116156101000203166002900490600052602060002090601f016020900481019282601f106200038157805160ff1916838001178555620003b2565b82800160010185558215620003b2579182015b82811115620003b157825182559160200191906001019062000394565b5b509050620003c19190620003c5565b5090565b620003ea91905b80821115620003e6576000816000905550600101620003cc565b5090565b90565b61481780620003fd6000396000f3fe608060405234801561001057600080fd5b50600436106101cf5760003560e01c80634f6ccce711610104578063b187bd26116100a2578063bdc32be011610071578063bdc32be014611006578063c87b56dd14611089578063e985e9c514611130578063f2fde38b146111ac576101cf565b8063b187bd2614610d09578063b71698c714610d2b578063b841feec14610da0578063b88d4fde14610f01576101cf565b806370a08231116100de57806370a0823114610b94578063893d20e814610bec57806395d89b4114610c36578063a22cb46514610cb9576101cf565b80634f6ccce71461096b578063621e9ec0146109ad5780636352211e14610b26576101cf565b806323b872dd116101715780633415c8621161014b5780633415c862146106c657806338bbfa501461073b57806340c10f191461089757806342842e0e146108fd576101cf565b806323b872dd1461053157806327dc297e1461059f5780632f745c5914610664576101cf565b8063095ea7b3116101ad578063095ea7b31461032a57806316c38b3c1461037857806318160ddd146103a85780631f092d34146103c6576101cf565b806301ffc9a7146101d457806306fdde0314610239578063081812fc146102bc575b600080fd5b61021f600480360360208110156101ea57600080fd5b8101908080357bffffffffffffffffffffffffffffffffffffffffffffffffffffffff191690602001909291905050506111f0565b604051808215151515815260200191505060405180910390f35b610241611258565b6040518080602001828103825283818151815260200191508051906020019080838360005b83811015610281578082015181840152602081019050610266565b50505050905090810190601f1680156102ae5780820380516001836020036101000a031916815260200191505b509250505060405180910390f35b6102e8600480360360208110156102d257600080fd5b81019080803590602001909291905050506112fa565b604051808273ffffffffffffffffffffffffffffffffffffffff1673ffffffffffffffffffffffffffffffffffffffff16815260200191505060405180910390f35b6103766004803603604081101561034057600080fd5b81019080803573ffffffffffffffffffffffffffffffffffffffff16906020019092919080359060200190929190505050611337565b005b6103a66004803603602081101561038e57600080fd5b81019080803515159060200190929190505050611522565b005b6103b06116e2565b6040518082815260200191505060405180910390f35b61052f60048036036101608110156103dd57600080fd5b8101908080604001906002806020026040519081016040528092919082600260200280828437600081840152601f19601f82011690508083019250505050505091929192908060800190600280602002604051908101604052809291906000905b82821015610492578382604002016002806020026040519081016040528092919082600260200280828437600081840152601f19601f8201169050808301925050505050508152602001906001019061043e565b50505050919291929080604001906002806020026040519081016040528092919082600260200280828437600081840152601f19601f820116905080830192505050505050919291929080604001906002806020026040519081016040528092919082600260200280828437600081840152601f19601f8201169050808301925050505050509192919290803590602001909291905050506116ef565b005b61059d6004803603606081101561054757600080fd5b81019080803573ffffffffffffffffffffffffffffffffffffffff169060200190929190803573ffffffffffffffffffffffffffffffffffffffff1690602001909291908035906020019092919050505061194d565b005b610662600480360360408110156105b557600080fd5b8101908080359060200190929190803590602001906401000000008111156105dc57600080fd5b8201836020820111156105ee57600080fd5b8035906020019184600183028401116401000000008311171561061057600080fd5b91908080601f016020809104026020016040519081016040528093929190818152602001838380828437600081840152601f19601f820116905080830192505050505050509192919290505050611970565b005b6106b06004803603604081101561067a57600080fd5b81019080803573ffffffffffffffffffffffffffffffffffffffff169060200190929190803590602001909291905050506119b3565b6040518082815260200191505060405180910390f35b6106f2600480360360208110156106dc57600080fd5b8101908080359060200190929190505050611a26565b604051808381526020018273ffffffffffffffffffffffffffffffffffffffff1673ffffffffffffffffffffffffffffffffffffffff1681526020019250505060405180910390f35b6108956004803603606081101561075157600080fd5b81019080803590602001909291908035906020019064010000000081111561077857600080fd5b82018360208201111561078a57600080fd5b803590602001918460018302840111640100000000831117156107ac57600080fd5b91908080601f016020809104026020016040519081016040528093929190818152602001838380828437600081840152601f19601f8201169050808301925050505050505091929192908035906020019064010000000081111561080f57600080fd5b82018360208201111561082157600080fd5b8035906020019184600183028401116401000000008311171561084357600080fd5b91908080601f016020809104026020016040519081016040528093929190818152602001838380828437600081840152601f19601f820116905080830192505050505050509192919290505050611a6a565b005b6108e3600480360360408110156108ad57600080fd5b81019080803573ffffffffffffffffffffffffffffffffffffffff16906020019092919080359060200190929190505050611a6f565b604051808215151515815260200191505060405180910390f35b6109696004803603606081101561091357600080fd5b81019080803573ffffffffffffffffffffffffffffffffffffffff169060200190929190803573ffffffffffffffffffffffffffffffffffffffff16906020019092919080359060200190929190505050611b50565b005b6109976004803603602081101561098157600080fd5b8101908080359060200190929190505050611b70565b6040518082815260200191505060405180910390f35b610b0c60048036036101408110156109c457600080fd5b8101908080604001906002806020026040519081016040528092919082600260200280828437600081840152601f19601f82011690508083019250505050505091929192908060800190600280602002604051908101604052809291906000905b82821015610a79578382604002016002806020026040519081016040528092919082600260200280828437600081840152601f19601f82011690508083019250505050505081526020019060010190610a25565b50505050919291929080604001906002806020026040519081016040528092919082600260200280828437600081840152601f19601f820116905080830192505050505050919291929080604001906002806020026040519081016040528092919082600260200280828437600081840152601f19601f8201169050808301925050505050509192919290505050611ba4565b604051808215151515815260200191505060405180910390f35b610b5260048036036020811015610b3c57600080fd5b8101908080359060200190929190505050611da0565b604051808273ffffffffffffffffffffffffffffffffffffffff1673ffffffffffffffffffffffffffffffffffffffff16815260200191505060405180910390f35b610bd660048036036020811015610baa57600080fd5b81019080803573ffffffffffffffffffffffffffffffffffffffff169060200190929190505050611ddd565b6040518082815260200191505060405180910390f35b610bf4611e2d565b604051808273ffffffffffffffffffffffffffffffffffffffff1673ffffffffffffffffffffffffffffffffffffffff16815260200191505060405180910390f35b610c3e611e56565b6040518080602001828103825283818151815260200191508051906020019080838360005b83811015610c7e578082015181840152602081019050610c63565b50505050905090810190601f168015610cab5780820380516001836020036101000a031916815260200191505b509250505060405180910390f35b610d0760048036036040811015610ccf57600080fd5b81019080803573ffffffffffffffffffffffffffffffffffffffff169060200190929190803515159060200190929190505050611ef8565b005b610d11612032565b604051808215151515815260200191505060405180910390f35b610d5760048036036020811015610d4157600080fd5b8101908080359060200190929190505050612048565b604051808381526020018273ffffffffffffffffffffffffffffffffffffffff1673ffffffffffffffffffffffffffffffffffffffff1681526020019250505060405180910390f35b610eff6004803603610140811015610db757600080fd5b8101908080604001906002806020026040519081016040528092919082600260200280828437600081840152601f19601f82011690508083019250505050505091929192908060800190600280602002604051908101604052809291906000905b82821015610e6c578382604002016002806020026040519081016040528092919082600260200280828437600081840152601f19601f82011690508083019250505050505081526020019060010190610e18565b50505050919291929080604001906002806020026040519081016040528092919082600260200280828437600081840152601f19601f820116905080830192505050505050919291929080604001906002806020026040519081016040528092919082600260200280828437600081840152601f19601f8201169050808301925050505050509192919290505050612099565b005b61100460048036036080811015610f1757600080fd5b81019080803573ffffffffffffffffffffffffffffffffffffffff169060200190929190803573ffffffffffffffffffffffffffffffffffffffff1690602001909291908035906020019092919080359060200190640100000000811115610f7e57600080fd5b820183602082011115610f9057600080fd5b80359060200191846001830284011164010000000083111715610fb257600080fd5b91908080601f016020809104026020016040519081016040528093929190818152602001838380828437600081840152601f19601f820116905080830192505050505050509192919290505050612349565b005b61100e61236f565b6040518080602001828103825283818151815260200191508051906020019080838360005b8381101561104e578082015181840152602081019050611033565b50505050905090810190601f16801561107b5780820380516001836020036101000a031916815260200191505b509250505060405180910390f35b6110b56004803603602081101561109f57600080fd5b8101908080359060200190929190505050612411565b6040518080602001828103825283818151815260200191508051906020019080838360005b838110156110f55780820151818401526020810190506110da565b50505050905090810190601f1680156111225780820380516001836020036101000a031916815260200191505b509250505060405180910390f35b6111926004803603604081101561114657600080fd5b81019080803573ffffffffffffffffffffffffffffffffffffffff169060200190929190803573ffffffffffffffffffffffffffffffffffffffff1690602001909291905050506124d8565b604051808215151515815260200191505060405180910390f35b6111ee600480360360208110156111c257600080fd5b81019080803573ffffffffffffffffffffffffffffffffffffffff16906020019092919050505061256c565b005b600060016000837bffffffffffffffffffffffffffffffffffffffffffffffffffffffff19167bffffffffffffffffffffffffffffffffffffffffffffffffffffffff1916815260200190815260200160002060009054906101000a900460ff169050919050565b6060600f8054600181600116156101000203166002900480601f0160208091040260200160405190810160405280929190818152602001828054600181600116156101000203166002900480156112f05780601f106112c5576101008083540402835291602001916112f0565b820191906000526020600020905b8154815290600101906020018083116112d357829003601f168201915b5050505050905090565b60006003600083815260200190815260200160002060009054906101000a900473ffffffffffffffffffffffffffffffffffffffff169050919050565b8173ffffffffffffffffffffffffffffffffffffffff1661135782611da0565b73ffffffffffffffffffffffffffffffffffffffff1614156113c4576040517f08c379a00000000000000000000000000000000000000000000000000000000081526004018080602001828103825260308152602001806147676030913960400191505060405180910390fd5b3373ffffffffffffffffffffffffffffffffffffffff166113e482611da0565b73ffffffffffffffffffffffffffffffffffffffff161480611414575061141361140d82611da0565b336124d8565b5b611469576040517f08c379a00000000000000000000000000000000000000000000000000000000081526004018080602001828103825260238152602001806146ed6023913960400191505060405180910390fd5b816003600083815260200190815260200160002060006101000a81548173ffffffffffffffffffffffffffffffffffffffff021916908373ffffffffffffffffffffffffffffffffffffffff160217905550808273ffffffffffffffffffffffffffffffffffffffff166114dc83611da0565b73ffffffffffffffffffffffffffffffffffffffff167f8c5be1e5ebec7d5bd14f71427d1e84f3dd0314c0f7b2291e5b200ac8c7c3b92560405160405180910390a45050565b6000809054906101000a900473ffffffffffffffffffffffffffffffffffffffff1673ffffffffffffffffffffffffffffffffffffffff163373ffffffffffffffffffffffffffffffffffffffff16146115e4576040517f08c379a000000000000000000000000000000000000000000000000000000000815260040180806020018281038252601c8152602001807f43616c6c6572206973206e6f7420636f6e7472616374206f776e65720000000081525060200191505060405180910390fd5b80600060146101000a81548160ff021916908315150217905550600060149054906101000a900460ff161561167b577f62e78cea01bee320cd4e420270b5ea74000d11b0c9f74754ebdbfc544b05a25833604051808273ffffffffffffffffffffffffffffffffffffffff1673ffffffffffffffffffffffffffffffffffffffff16815260200191505060405180910390a16116df565b7f5db9ee0a495bf2e6ff9c91a7834c1ba4fdd244a5e8aa4e537bd38aeae4b073aa33604051808273ffffffffffffffffffffffffffffffffffffffff1673ffffffffffffffffffffffffffffffffffffffff16815260200191505060405180910390a15b50565b6000600880549050905090565b6000858585856040516020018085600260200280838360005b83811015611723578082015181840152602081019050611708565b505050509050018460026000925b818410156117775782846020020151600260200280838360005b8381101561176657808201518184015260208101905061174b565b505050509050019260010192611731565b9250505083600260200280838360005b838110156117a2578082015181840152602081019050611787565b5050505090500182600260200280838360005b838110156117d05780820151818401526020810190506117b5565b50505050905001945050505050604051602081830303815290604052805190602001209050600073ffffffffffffffffffffffffffffffffffffffff166015600083815260200190815260200160002060010160009054906101000a900473ffffffffffffffffffffffffffffffffffffffff1673ffffffffffffffffffffffffffffffffffffffff16146118b0576040517f08c379a00000000000000000000000000000000000000000000000000000000081526004018080602001828103825260278152602001806147406027913960400191505060405180910390fd5b6118bc86868686611ba4565b61192e576040517f08c379a00000000000000000000000000000000000000000000000000000000081526004018080602001828103825260198152602001807f54686520736f6c7574696f6e206973206e6f742076616c69640000000000000081525060200191505060405180910390fd5b61193a86868686612099565b6119443383611a6f565b50505050505050565b611957338261276a565b61196057600080fd5b61196b8383836127ff565b505050565b6119af828260006040519080825280601f01601f1916602001820160405280156119a95781602001600182028038833980820191505090505b50611a6a565b5050565b60006119be83611ddd565b82106119c957600080fd5b600660008473ffffffffffffffffffffffffffffffffffffffff1673ffffffffffffffffffffffffffffffffffffffff1681526020019081526020016000208281548110611a1357fe5b9060005260206000200154905092915050565b60156020528060005260406000206000915090508060000154908060010160009054906101000a900473ffffffffffffffffffffffffffffffffffffffff16905082565b505050565b60008060009054906101000a900473ffffffffffffffffffffffffffffffffffffffff1673ffffffffffffffffffffffffffffffffffffffff163373ffffffffffffffffffffffffffffffffffffffff1614611b33576040517f08c379a000000000000000000000000000000000000000000000000000000000815260040180806020018281038252601c8152602001807f43616c6c6572206973206e6f7420636f6e7472616374206f776e65720000000081525060200191505060405180910390fd5b611b3d8383612823565b611b4682612844565b6001905092915050565b611b6b83838360405180602001604052806000815250612349565b505050565b6000611b7a6116e2565b8210611b8557600080fd5b60088281548110611b9257fe5b90600052602060002001549050919050565b6000611bae614440565b604051806040016040528087600060028110611bc657fe5b6020020151815260200187600160028110611bdd57fe5b602002015181525081600001819052506040518060400160405280604051806040016040528088600060028110611c1057fe5b6020020151600060028110611c2157fe5b6020020151815260200188600060028110611c3857fe5b6020020151600160028110611c4957fe5b60200201518152508152602001604051806040016040528088600160028110611c6e57fe5b6020020151600060028110611c7f57fe5b6020020151815260200188600160028110611c9657fe5b6020020151600160028110611ca757fe5b60200201518152508152508160200181905250604051806040016040528085600060028110611cd257fe5b6020020151815260200185600160028110611ce957fe5b6020020151815250816040018190525060606002604051908082528060200260200182016040528015611d2b5781602001602082028038833980820191505090505b50905060008090505b6002811015611d7357848160028110611d4957fe5b6020020151828281518110611d5a57fe5b6020026020010181815250508080600101915050611d34565b506000611d808284612995565b1415611d9157600192505050611d98565b6000925050505b949350505050565b60006002600083815260200190815260200160002060009054906101000a900473ffffffffffffffffffffffffffffffffffffffff169050919050565b6000611e26600460008473ffffffffffffffffffffffffffffffffffffffff1673ffffffffffffffffffffffffffffffffffffffff168152602001908152602001600020612b07565b9050919050565b60008060009054906101000a900473ffffffffffffffffffffffffffffffffffffffff16905090565b606060108054600181600116156101000203166002900480601f016020809104026020016040519081016040528092919081815260200182805460018160011615610100020316600290048015611eee5780601f10611ec357610100808354040283529160200191611eee565b820191906000526020600020905b815481529060010190602001808311611ed157829003601f168201915b5050505050905090565b3373ffffffffffffffffffffffffffffffffffffffff168273ffffffffffffffffffffffffffffffffffffffff161415611f3157600080fd5b80600560003373ffffffffffffffffffffffffffffffffffffffff1673ffffffffffffffffffffffffffffffffffffffff16815260200190815260200160002060008473ffffffffffffffffffffffffffffffffffffffff1673ffffffffffffffffffffffffffffffffffffffff16815260200190815260200160002060006101000a81548160ff0219169083151502179055508173ffffffffffffffffffffffffffffffffffffffff163373ffffffffffffffffffffffffffffffffffffffff167f17307eab39ab6107e8899845ad3d59bd9653f200f220920489ca2b5937696c3183604051808215151515815260200191505060405180910390a35050565b60008060149054906101000a900460ff16905090565b6014818154811061205557fe5b90600052602060002090600202016000915090508060000154908060010160009054906101000a900473ffffffffffffffffffffffffffffffffffffffff16905082565b6120a1614473565b6040518060400160405280601360008154809291906001019190505581526020013373ffffffffffffffffffffffffffffffffffffffff1681525090506000858585856040516020018085600260200280838360005b838110156121125780820151818401526020810190506120f7565b505050509050018460026000925b818410156121665782846020020151600260200280838360005b8381101561215557808201518184015260208101905061213a565b505050509050019260010192612120565b9250505083600260200280838360005b83811015612191578082015181840152602081019050612176565b5050505090500182600260200280838360005b838110156121bf5780820151818401526020810190506121a4565b5050505090500194505050505060405160208183030381529060405280519060200120905081601560008381526020019081526020016000206000820151816000015560208201518160010160006101000a81548173ffffffffffffffffffffffffffffffffffffffff021916908373ffffffffffffffffffffffffffffffffffffffff160217905550905050601482908060018154018082558091505090600182039060005260206000209060020201600090919290919091506000820151816000015560208201518160010160006101000a81548173ffffffffffffffffffffffffffffffffffffffff021916908373ffffffffffffffffffffffffffffffffffffffff1602179055505050507f8ba5cdc385bc6c37c9a05ad09fbc238589c43602f4cee09c46856027df8a935a82600001518360200151604051808381526020018273ffffffffffffffffffffffffffffffffffffffff1673ffffffffffffffffffffffffffffffffffffffff1681526020019250505060405180910390a1505050505050565b61235484848461194d565b61236084848484612b15565b61236957600080fd5b50505050565b606060118054600181600116156101000203166002900480601f0160208091040260200160405190810160405280929190818152602001828054600181600116156101000203166002900480156124075780601f106123dc57610100808354040283529160200191612407565b820191906000526020600020905b8154815290600101906020018083116123ea57829003601f168201915b5050505050905090565b606061241c82612cfe565b61242557600080fd5b601260008381526020019081526020016000208054600181600116156101000203166002900480601f0160208091040260200160405190810160405280929190818152602001828054600181600116156101000203166002900480156124cc5780601f106124a1576101008083540402835291602001916124cc565b820191906000526020600020905b8154815290600101906020018083116124af57829003601f168201915b50505050509050919050565b6000600560008473ffffffffffffffffffffffffffffffffffffffff1673ffffffffffffffffffffffffffffffffffffffff16815260200190815260200160002060008373ffffffffffffffffffffffffffffffffffffffff1673ffffffffffffffffffffffffffffffffffffffff16815260200190815260200160002060009054906101000a900460ff16905092915050565b6000809054906101000a900473ffffffffffffffffffffffffffffffffffffffff1673ffffffffffffffffffffffffffffffffffffffff163373ffffffffffffffffffffffffffffffffffffffff161461262e576040517f08c379a000000000000000000000000000000000000000000000000000000000815260040180806020018281038252601c8152602001807f43616c6c6572206973206e6f7420636f6e7472616374206f776e65720000000081525060200191505060405180910390fd5b61264d8173ffffffffffffffffffffffffffffffffffffffff16612d70565b156126a3576040517f08c379a000000000000000000000000000000000000000000000000000000000815260040180806020018281038252604c815260200180614797604c913960600191505060405180910390fd5b806000806101000a81548173ffffffffffffffffffffffffffffffffffffffff021916908373ffffffffffffffffffffffffffffffffffffffff1602179055507f3edd90e7770f06fafde38004653b33870066c33bfc923ff6102acd601f85dfbc6000809054906101000a900473ffffffffffffffffffffffffffffffffffffffff16604051808273ffffffffffffffffffffffffffffffffffffffff1673ffffffffffffffffffffffffffffffffffffffff16815260200191505060405180910390a150565b60008061277683611da0565b90508073ffffffffffffffffffffffffffffffffffffffff168473ffffffffffffffffffffffffffffffffffffffff1614806127e557508373ffffffffffffffffffffffffffffffffffffffff166127cd846112fa565b73ffffffffffffffffffffffffffffffffffffffff16145b806127f657506127f581856124d8565b5b91505092915050565b61280a838383612dbb565b612814838261304f565b61281e82826131ed565b505050565b61282d82826132b4565b61283782826131ed565b6128408161349d565b5050565b61284d81612cfe565b6128bf576040517f08c379a00000000000000000000000000000000000000000000000000000000081526004018080602001828103825260198152602001807f54686520746f6b656e20646f6573206e6f742065786973742e0000000000000081525060200191505060405180910390fd5b61296b60118054600181600116156101000203166002900480601f0160208091040260200160405190810160405280929190818152602001828054600181600116156101000203166002900480156129585780601f1061292d57610100808354040283529160200191612958565b820191906000526020600020905b81548152906001019060200180831161293b57829003601f168201915b5050505050612966836134e9565b613616565b6012600083815260200190815260200160002090805190602001906129919291906144a3565b5050565b6000807f30644e72e131a029b85045b68181585d2833e84879b9709143e1f593f000000190506129c3614523565b6129cb61365a565b90508060800151516001865101146129e257600080fd5b6129ea61456a565b6040518060400160405280600081526020016000815250905060008090505b8651811015612a805783878281518110612a1f57fe5b602002602001015110612a3157600080fd5b612a7182612a6c85608001516001850181518110612a4b57fe5b60200260200101518a8581518110612a5f57fe5b6020026020010151613aa7565b613b39565b91508080600101915050612a09565b50612aa3818360800151600081518110612a9657fe5b6020026020010151613b39565b9050612ae985600001518660200151612abb84613bea565b8560400151612acd8a60400151613bea565b8760600151612adf8960000151613bea565b8960200151613c84565b612af95760019350505050612b01565b600093505050505b92915050565b600081600001549050919050565b6000612b368473ffffffffffffffffffffffffffffffffffffffff16612d70565b612b435760019050612cf6565b60008473ffffffffffffffffffffffffffffffffffffffff1663150b7a02338887876040518563ffffffff1660e01b8152600401808573ffffffffffffffffffffffffffffffffffffffff1673ffffffffffffffffffffffffffffffffffffffff1681526020018473ffffffffffffffffffffffffffffffffffffffff1673ffffffffffffffffffffffffffffffffffffffff16815260200183815260200180602001828103825283818151815260200191508051906020019080838360005b83811015612c1e578082015181840152602081019050612c03565b50505050905090810190601f168015612c4b5780820380516001836020036101000a031916815260200191505b5095505050505050602060405180830381600087803b158015612c6d57600080fd5b505af1158015612c81573d6000803e3d6000fd5b505050506040513d6020811015612c9757600080fd5b8101908080519060200190929190505050905063150b7a0260e01b7bffffffffffffffffffffffffffffffffffffffffffffffffffffffff1916817bffffffffffffffffffffffffffffffffffffffffffffffffffffffff1916149150505b949350505050565b6000806002600084815260200190815260200160002060009054906101000a900473ffffffffffffffffffffffffffffffffffffffff169050600073ffffffffffffffffffffffffffffffffffffffff168173ffffffffffffffffffffffffffffffffffffffff161415915050919050565b60008060007fc5d2460186f7233c927e7db2dcc703c0e500b653ca82273b7bfad8045d85a47060001b9050833f9150808214158015612db257506000801b8214155b92505050919050565b8273ffffffffffffffffffffffffffffffffffffffff16612ddb82611da0565b73ffffffffffffffffffffffffffffffffffffffff1614612e47576040517f08c379a00000000000000000000000000000000000000000000000000000000081526004018080602001828103825260308152602001806147106030913960400191505060405180910390fd5b612e668273ffffffffffffffffffffffffffffffffffffffff16612d70565b15612ebc576040517f08c379a000000000000000000000000000000000000000000000000000000000815260040180806020018281038252602e81526020018061469e602e913960400191505060405180910390fd5b60006003600083815260200190815260200160002060006101000a81548173ffffffffffffffffffffffffffffffffffffffff021916908373ffffffffffffffffffffffffffffffffffffffff160217905550612f56600460008573ffffffffffffffffffffffffffffffffffffffff1673ffffffffffffffffffffffffffffffffffffffff168152602001908152602001600020613de8565b612f9d600460008473ffffffffffffffffffffffffffffffffffffffff1673ffffffffffffffffffffffffffffffffffffffff168152602001908152602001600020613e0b565b816002600083815260200190815260200160002060006101000a81548173ffffffffffffffffffffffffffffffffffffffff021916908373ffffffffffffffffffffffffffffffffffffffff160217905550808273ffffffffffffffffffffffffffffffffffffffff168473ffffffffffffffffffffffffffffffffffffffff167fddf252ad1be2c89b69c2b068fc378daa952ba7f163c4a11628f55a4df523b3ef60405160405180910390a4505050565b60006130a76001600660008673ffffffffffffffffffffffffffffffffffffffff1673ffffffffffffffffffffffffffffffffffffffff16815260200190815260200160002080549050613e2190919063ffffffff16565b9050600060076000848152602001908152602001600020549050818114613194576000600660008673ffffffffffffffffffffffffffffffffffffffff1673ffffffffffffffffffffffffffffffffffffffff168152602001908152602001600020838154811061311457fe5b9060005260206000200154905080600660008773ffffffffffffffffffffffffffffffffffffffff1673ffffffffffffffffffffffffffffffffffffffff168152602001908152602001600020838154811061316c57fe5b9060005260206000200181905550816007600083815260200190815260200160002081905550505b600660008573ffffffffffffffffffffffffffffffffffffffff1673ffffffffffffffffffffffffffffffffffffffff1681526020019081526020016000208054809190600190036131e69190614584565b5050505050565b600660008373ffffffffffffffffffffffffffffffffffffffff1673ffffffffffffffffffffffffffffffffffffffff168152602001908152602001600020805490506007600083815260200190815260200160002081905550600660008373ffffffffffffffffffffffffffffffffffffffff1673ffffffffffffffffffffffffffffffffffffffff1681526020019081526020016000208190806001815401808255809150509060018203906000526020600020016000909192909190915055505050565b6132bd81612cfe565b15613330576040517f08c379a00000000000000000000000000000000000000000000000000000000081526004018080602001828103825260198152602001807f5468697320746f6b656e20616c7265616479206578697374730000000000000081525060200191505060405180910390fd5b61334f8273ffffffffffffffffffffffffffffffffffffffff16612d70565b156133a5576040517f08c379a00000000000000000000000000000000000000000000000000000000081526004018080602001828103825260218152602001806146cc6021913960400191505060405180910390fd5b816002600083815260200190815260200160002060006101000a81548173ffffffffffffffffffffffffffffffffffffffff021916908373ffffffffffffffffffffffffffffffffffffffff16021790555061343e600460008473ffffffffffffffffffffffffffffffffffffffff1673ffffffffffffffffffffffffffffffffffffffff168152602001908152602001600020613e0b565b808273ffffffffffffffffffffffffffffffffffffffff163373ffffffffffffffffffffffffffffffffffffffff167fddf252ad1be2c89b69c2b068fc378daa952ba7f163c4a11628f55a4df523b3ef60405160405180910390a45050565b6008805490506009600083815260200190815260200160002081905550600881908060018154018082558091505090600182039060005260206000200160009091929091909150555050565b60606000821415613531576040518060400160405280600181526020017f30000000000000000000000000000000000000000000000000000000000000008152509050613611565b600082905060005b6000821461355b578080600101915050600a828161355357fe5b049150613539565b6060816040519080825280601f01601f1916602001820160405280156135905781602001600182028038833980820191505090505b50905060006001830390505b6000861461360957600a86816135ae57fe5b0660300160f81b828280600190039350815181106135c857fe5b60200101907effffffffffffffffffffffffffffffffffffffffffffffffffffffffffffff1916908160001a905350600a868161360157fe5b04955061359c565b819450505050505b919050565b60606136528383604051806020016040528060008152506040518060200160405280600081525060405180602001604052806000815250613e6b565b905092915050565b613662614523565b60405180604001604052807f09a227cf7e498deaad12eddfc6d1fb2b193d055b9f333a4f5911844a721141ca81526020017f09841fb9f1ba949dda9ceae5f599286eaa37ffea73ceb1b76edbac20627448988152508160000181905250604051806040016040528060405180604001604052807f07f761677eb493ac3a851447e90e8da3d3cb718b72c891853874154b55fe36ab81526020017f1dfe4f6a6191baa12e1f1d2cede324a49e0f7b41ff953fd916998658e902fa35815250815260200160405180604001604052807f0547d1e9165ac5fefa67be159e66a735ca7b749d808ed103dd9fda1e98731a1581526020017f2d614b308a62ec95a2f36a4296f3beb446a8b4ec9373835d03c129e3ae8bf1258152508152508160200181905250604051806040016040528060405180604001604052807f2b1ddd977080dfdc5d50af08c05db6c351afae72db91df710eeef6abf990391581526020017f190d2f67eda618f077c3e2b2371283863b39f2447069f5048bb5323399d27213815250815260200160405180604001604052807f1b42798399555af118fe331ce5d661082ce9a11d6ecd8d647269d6bf3d4570f381526020017f04d1d5ad098962fe0a1d3ca9f008eb7aa730d738b36bb3dfb199d5c18227bf1e8152508152508160400181905250604051806040016040528060405180604001604052807f0fb3d4a609a1b49d45b635abc7724b156f31fc11f9e9f5e7a5e717ec12b77cfc81526020017f0e947b6b90b94137468dd32e69a50bbeb346d40c1e61bdeede1718167315ad9b815250815260200160405180604001604052807f18536d83e9c2b7d7c594f6259e24825079c752de5aa74b7377750e92ce97310181526020017f1417652792c7dffbdb9a24710fa631030580bbc18c6c05d5ab5b844dcea62ac38152508152508160600181905250600360405190808252806020026020018201604052801561394957816020015b6139366145b0565b81526020019060019003908161392e5790505b50816080018190525060405180604001604052807f1324dc68914edb385915923f2c6c10311a152fa1a5bd2580573decbb6adc512381526020017f0ee93fadb3667bef4a2dacf43d572d2a127493df1c1efd964093309a9c566a5581525081608001516000815181106139b857fe5b602002602001018190525060405180604001604052807f1f19c885e85cc1fb2299fd5243f202a70162736c35a40f3c6b716de875c9f57381526020017f1d101c0b9c57acddcfa13600cc331332f47e0a121a93d9ff4c6ff037f37bd8b78152508160800151600181518110613a2957fe5b602002602001018190525060405180604001604052807f24bcae80cf07840fae8dafd5e0300c7036a399af0405fc9d63d0cfa10a67f9ea81526020017ea51ff92851a4881309e0c83c640d1d75eb9bf26b6dd95776710399b9021b408152508160800151600281518110613a9957fe5b602002602001018190525090565b613aaf61456a565b613ab76145ca565b836000015181600060038110613ac957fe5b602002018181525050836020015181600160038110613ae457fe5b6020020181815250508281600260038110613afb57fe5b602002018181525050600060608360808460076107d05a03fa90508060008114613b2457613b26565bfe5b5080613b3157600080fd5b505092915050565b613b4161456a565b613b496145ec565b836000015181600060048110613b5b57fe5b602002018181525050836020015181600160048110613b7657fe5b602002018181525050826000015181600260048110613b9157fe5b602002018181525050826020015181600360048110613bac57fe5b602002018181525050600060608360c08460066107d05a03fa90508060008114613bd557613bd7565bfe5b5080613be257600080fd5b505092915050565b613bf261456a565b60007f30644e72e131a029b85045b68181585d97816a916871ca8d3c208c16d87cfd47905060008360000151148015613c2f575060008360200151145b15613c53576040518060400160405280600081526020016000815250915050613c7f565b60405180604001604052808460000151815260200182856020015181613c7557fe5b0683038152509150505b919050565b600060606004604051908082528060200260200182016040528015613cc357816020015b613cb06145b0565b815260200190600190039081613ca85790505b50905060606004604051908082528060200260200182016040528015613d0357816020015b613cf061460e565b815260200190600190039081613ce85790505b5090508a82600081518110613d1457fe5b60200260200101819052508882600181518110613d2d57fe5b60200260200101819052508682600281518110613d4657fe5b60200260200101819052508482600381518110613d5f57fe5b60200260200101819052508981600081518110613d7857fe5b60200260200101819052508781600181518110613d9157fe5b60200260200101819052508581600281518110613daa57fe5b60200260200101819052508381600381518110613dc357fe5b6020026020010181905250613dd8828261412d565b9250505098975050505050505050565b613e0060018260000154613e2190919063ffffffff16565b816000018190555050565b6001816000016000828254019250508190555050565b6000613e6383836040518060400160405280601e81526020017f536166654d6174683a207375627472616374696f6e206f766572666c6f770000815250614380565b905092915050565b6060808690506060869050606086905060608690506060869050606081518351855187518951010101016040519080825280601f01601f191660200182016040528015613ec75781602001600182028038833980820191505090505b509050606081905060008090506000809050600090505b8851811015613f4c57888181518110613ef357fe5b602001015160f81c60f81b838380600101945081518110613f1057fe5b60200101907effffffffffffffffffffffffffffffffffffffffffffffffffffffffffffff1916908160001a9053508080600101915050613ede565b600090505b8751811015613fbf57878181518110613f6657fe5b602001015160f81c60f81b838380600101945081518110613f8357fe5b60200101907effffffffffffffffffffffffffffffffffffffffffffffffffffffffffffff1916908160001a9053508080600101915050613f51565b600090505b865181101561403257868181518110613fd957fe5b602001015160f81c60f81b838380600101945081518110613ff657fe5b60200101907effffffffffffffffffffffffffffffffffffffffffffffffffffffffffffff1916908160001a9053508080600101915050613fc4565b600090505b85518110156140a55785818151811061404c57fe5b602001015160f81c60f81b83838060010194508151811061406957fe5b60200101907effffffffffffffffffffffffffffffffffffffffffffffffffffffffffffff1916908160001a9053508080600101915050614037565b600090505b8451811015614118578481815181106140bf57fe5b602001015160f81c60f81b8383806001019450815181106140dc57fe5b60200101907effffffffffffffffffffffffffffffffffffffffffffffffffffffffffffff1916908160001a90535080806001019150506140aa565b82995050505050505050505095945050505050565b6000815183511461413d57600080fd5b600083519050600060068202905060608160405190808252806020026020018201604052801561417c5781602001602082028038833980820191505090505b50905060008090505b838110156143225786818151811061419957fe5b6020026020010151600001518260006006840201815181106141b757fe5b6020026020010181815250508681815181106141cf57fe5b6020026020010151602001518260016006840201815181106141ed57fe5b60200260200101818152505085818151811061420557fe5b60200260200101516000015160016002811061421d57fe5b602002015182600260068402018151811061423457fe5b60200260200101818152505085818151811061424c57fe5b60200260200101516000015160006002811061426457fe5b602002015182600360068402018151811061427b57fe5b60200260200101818152505085818151811061429357fe5b6020026020010151602001516001600281106142ab57fe5b60200201518260046006840201815181106142c257fe5b6020026020010181815250508581815181106142da57fe5b6020026020010151602001516000600281106142f257fe5b602002015182600560068402018151811061430957fe5b6020026020010181815250508080600101915050614185565b5061432b614634565b6000602082602086026020860160086107d05a03fa9050806000811461435057614352565bfe5b508061435d57600080fd5b60008260006001811061436c57fe5b602002015114159550505050505092915050565b600083831115829061442d576040517f08c379a00000000000000000000000000000000000000000000000000000000081526004018080602001828103825283818151815260200191508051906020019080838360005b838110156143f25780820151818401526020810190506143d7565b50505050905090810190601f16801561441f5780820380516001836020036101000a031916815260200191505b509250505060405180910390fd5b5060008385039050809150509392505050565b60405180606001604052806144536145b0565b815260200161446061460e565b815260200161446d6145b0565b81525090565b604051806040016040528060008152602001600073ffffffffffffffffffffffffffffffffffffffff1681525090565b828054600181600116156101000203166002900490600052602060002090601f016020900481019282601f106144e457805160ff1916838001178555614512565b82800160010185558215614512579182015b828111156145115782518255916020019190600101906144f6565b5b50905061451f9190614656565b5090565b6040518060a001604052806145366145b0565b815260200161454361460e565b815260200161455061460e565b815260200161455d61460e565b8152602001606081525090565b604051806040016040528060008152602001600081525090565b8154818355818111156145ab578183600052602060002091820191016145aa9190614656565b5b505050565b604051806040016040528060008152602001600081525090565b6040518060600160405280600390602082028038833980820191505090505090565b6040518060800160405280600490602082028038833980820191505090505090565b604051806040016040528061462161467b565b815260200161462e61467b565b81525090565b6040518060200160405280600190602082028038833980820191505090505090565b61467891905b8082111561467457600081600090555060010161465c565b5090565b90565b604051806040016040528060029060208202803883398082019150509050509056fe5468652064657374696e6174696f6e2061646472657373206973206e6f7420612076616c6964206164647265737344657374696e6174696f6e2061646472657373206973206120636f6e7472616374596f7520617265206e6f7420746865206f776e6572206f662074686520746f6b656e2e546865202766726f6d272061646472657373206973206e6f7420746865206f776e6572206f662074686520746f6b656e54686520736f6c7574696f6e2068617320616c7265616479206265656e207375626d6974746564546865206e6577206f776e6572206973207468652063757272656e74206f776e6572206f662074686520746f6b656e2e54686520676976656e2061646472657373206973206120636f6e7472616374206164647265737320616e642069742073686f756c6420626520616e206163636f756e7420616464726573732ea265627a7a723158208195849408efdd3675c59785a8d2822491010c7676e65406a1f7f7360f868f8f64736f6c6343000510003268747470733a2f2f73332d75732d776573742d322e616d617a6f6e6177732e636f6d2f756461636974792d626c6f636b636861696e2f63617073746f6e652f",
  "source": "pragma solidity >=0.4.21 <0.6.0;\n\n// TODO define a contract call to the zokrates generated solidity contract <Verifier> or <renamedVerifier>\nimport './../../zokrates/code/square/verifier.sol';\nimport './ERC721Mintable.sol';\n\n// TODO define another contract named SolnSquareVerifier that inherits from your ERC721Mintable class\ncontract SolnSquareVerifier is CustomERC721Token, Verifier {\n    uint indexCounter = 0;\n\n    // TODO define a solutions struct that can hold an index & an address\n    struct Solution {\n        uint index;\n        address sender;\n    }\n\n    // TODO define an array of the above struct\n    Solution[] public solutions;\n\n    // TODO define a mapping to store unique solutions submitted\n    mapping(bytes32 => Solution) public submitted;\n\n    // TODO Create an event to emit when a solution is added\n    event Added(uint index, address sender);\n\n    // TODO Create a function to add the solutions to the array and emit the event\n    function add(uint[2] memory a, uint[2][2] memory b, uint[2] memory c, uint[2] memory input) public {\n        Solution memory newSolution = Solution({\n                index: indexCounter++,\n                sender: msg.sender\n            });\n            \n        bytes32 key = keccak256(abi.encodePacked(a, b, c, input));\n        submitted[key] = newSolution;\n        solutions.push(newSolution);\n        \n        emit Added(newSolution.index, newSolution.sender);\n    }\n\n    // TODO Create a function to mint new NFT only after the solution has been verified\n    //  - make sure the solution is unique (has not been used before)\n    //  - make sure you handle metadata as well as tokenSuplly\n    function verifyAndMint(uint[2] memory a, uint[2][2] memory b, uint[2] memory c, uint[2] memory input, uint256 tokenId) public {\n        bytes32 key = keccak256(abi.encodePacked(a, b, c, input));\n        require(submitted[key].sender == address(0), 'The solution has already been submitted');\n        require(verifyTx(a, b, c, input), 'The solution is not valid');\n        add(a, b, c, input);\n        mint(msg.sender, tokenId);\n    }\n}\n\n  \n\n\n\n\n\n\n\n\n\n\n\n\n\n\n\n\n\n\n\n\n\n\n\n\n\n\n",
  "sourcePath": "/Users/brunopardini/Documents/Udacity/Blockchain/Capstone/eth-contracts/contracts/SolnSquareVerifier.sol",
  "compiler": {
    "name": "solc",
    "version": "0.5.16+commit.9c3226ce.Emscripten.clang"
  },
  "schemaVersion": "3.3.3",
  "updatedAt": "2021-04-06T10:27:08.502Z",
  "networkType": "ethereum",
  "devdoc": {
    "methods": {
      "isApprovedForAll(address,address)": {
        "details": "Tells whether an operator is approved by a given owner",
        "params": {
          "operator": "operator address which you want to query the approval of",
          "owner": "owner address which you want to query the approval of"
        },
        "return": "bool whether the given operator is approved by the given owner"
      },
      "isPaused()": {
        "details": "public method to know if contract is active or paused"
      },
      "setApprovalForAll(address,bool)": {
        "details": "Sets or unsets the approval of a given operator An operator is allowed to transfer all tokens of the sender on their behalf",
        "params": {
          "approved": "representing the status of the approval to be set",
          "to": "operator address to set the approval"
        }
      },
      "supportsInterface(bytes4)": {
        "details": "implement supportsInterface(bytes4) using a lookup table"
      },
      "tokenByIndex(uint256)": {
        "details": "Gets the token ID at a given index of all the tokens in this contract Reverts if the index is greater or equal to the total number of tokens",
        "params": {
          "index": "uint256 representing the index to be accessed of the tokens list"
        },
        "return": "uint256 token ID at the given index of the tokens list"
      },
      "tokenOfOwnerByIndex(address,uint256)": {
        "details": "Gets the token ID at a given index of the tokens list of the requested owner",
        "params": {
          "index": "uint256 representing the index to be accessed of the requested tokens list",
          "owner": "address owning the tokens list to be accessed"
        },
        "return": "uint256 token ID at the given index of the tokens list owned by the requested address"
      },
      "totalSupply()": {
        "details": "Gets the total amount of tokens stored by the contract",
        "return": "uint256 representing the total amount of tokens"
      }
    }
  },
  "userdoc": {
    "methods": {}
  }
}